:020000040800F2
:1000000070060020CD010008A50600082D04000898
:10001000A10600087F020008F907000800000000A0
:10002000000000000000000000000000A906000819
:100030008302000800000000A706000895070008DA
:10004000E7010008E7010008E7010008E7010008F0
:10005000E7010008E701000891020008E701000835
:10006000E5030008E7010008E7010008E7010008D0
:10007000E7010008E7010008E7010008E7010008C0
:10008000E7010008E7010008E7010008E7010008B0
:10009000E7010008E7010008E7010008E7010008A0
:1000A000E7010008E7010008E7010008E701000890
:1000B000E7010008E7010008E7010008E701000880
:1000C000E7010008E7010008E7010008E701000870
:1000D000E7010008E7010008E7010008E701000860
:1000E000D9020008E7010008E7010008E70100085D
:1000F000E7010008E7010008E7010008E701000840
:10010000E7010008E7010008E7010008E70100082F
:10011000E7010008E7010008E7010008E70100081F
:10012000E7010008E7010008E7010008E70100080F
:1001300000F002F800F03AF80AA090E8000C8244BF
:100140008344AAF10107DA4501D100F02FF8AFF29C
:10015000090EBAE80F0013F0010F18BFFB1A43F0A5
:10016000010318477C0E00009C0E0000103A24BFCB
:1001700078C878C1FAD8520724BF30C830C144BF0C
:1001800004680C607047000000230024002500264E
:10019000103A28BF78C1FBD8520728BF30C148BFEA
:1001A0000B6070471FB51FBD10B510BD00F031F8D2
:1001B0001146FFF7F7FF00F0D7FB00F04FF803B44C
:1001C000FFF7F2FF03BC00F053F800000948804736
:1001D00009480047FEE7FEE7FEE7FEE7FEE7FEE729
:1001E000FEE7FEE7FEE7FEE704480549054A064B41
:1001F00070470000990700083101000870000020D6
:1002000070060020700200207002002070477047C6
:100210007047754600F028F8AE460500694653461B
:1002200020F00700854618B020B5FFF7DDFFBDE8D8
:1002300020404FF000064FF000074FF000084FF04D
:10024000000B21F00701AC46ACE8C009ACE8C009DE
:10025000ACE8C009ACE8C0098D4670470446AFF36E
:1002600000802046FFF7ABFF0048704710000020D9
:1002700001491820ABBEFEE726000200704700BF10
:10028000FEE77047002100E0491C8142FCD3704723
:1002900000B520200C49086000230EE020200B4907
:1002A00008600B48FFF7EEFF20200849091D086091
:1002B0000748FFF7E7FF581CC3B20A2BEEDB01200B
:1002C0000449086000BD0000140C014010180140F2
:1002D00040420F00140401402DE9F04739480068FE
:1002E00000F4006000286BD000F07CFB0546364926
:1002F000097805FA01F0354909880843334908802F
:1003000031480078401C30490870084600780B28B6
:1003100050DB2E480488002008702C49088004F027
:100320000106C4F34707C4F34028C4F380293846C4
:1003300000F064FA404400F0FF0A5EB9B9F1010F21
:1003400008D10AF0010028B1384600F045FB012031
:100350001F4908701E48007858B31E4908780021CC
:100360001B4A1170F02803D101211B4A11701FE0B4
:100370001949097801290ED1692803D12021174A8A
:10038000116004E0722802D12021154A1160002179
:10039000114A11700CE0692804D120210F4A121F64
:1003A000116005E0722803D120210D4A121F11604F
:1003B00000BF00BF4FF4006002490860086000BF42
:1003C000BDE8F08714040140020000200000002076
:1003D00003000020040000200C000020140C014049
:1003E0001418014000B520200C49086000230EE0DD
:1003F00020200B4908600B48FFF744FF20200849E4
:10040000091D08600748FFF73DFF581CC3B20A2BBF
:10041000EEDB04200449086000BD00001418014010
:10042000100C014040420F001404014000BFFEE7E1
:100430000848806940F0080006498861064800685D
:1004400020F00F00044908600846006840F00300EF
:100450000860704700100240040C01401F4880698A
:1004600040F004001D4988610846806940F008009A
:1004700088610846806940F040008861184800683B
:1004800020F47000164908600846006840F44010E7
:10049000086014480068144908401249086008467A
:1004A0000068124908430F4908600E480C30006884
:1004B00020F00F000B490C3108600846006840F03E
:1004C0000C0008600A48006820F00F000849086026
:1004D0000846006840F008000860704700100240BD
:1004E000000C014000180140FF000FFF00883000A1
:1004F000000801400848806940F00800064988610A
:100500000648006820F47000044908600846006846
:1005100040F440100860704700100240000C014099
:1005200007210020254A5268254B1A40234B5A6068
:100530001A461268234B1A40204B1A601A4612685A
:1005400042F480321A6000BF1C4A1268520C002A22
:10055000FAD04FF48062194B5A601A46526842EA48
:1005600081425A601A46526842F480325A601A46F2
:10057000526842F480325A60134A126842F03202E2
:10058000114B1A600D4A126842F080720B4B1A60D0
:1005900000BF0A4A1268520E002AFAD0074A52686F
:1005A00042F00202054B5A6005E0044A5268C2F369
:1005B000870000F003000228F7D1704700100240C6
:1005C0000000FFF8FFFFF6FE002002402DE9F05F7B
:1005D00005460E46300100F0A3FB81462C4905FB81
:1005E00001F000F09DFB8246494600F0B7FA07464D
:1005F000384600F075FB84B2204600F091FB83463C
:10060000394600F06DFC82464FF0834100F09CFBC0
:10061000814600F065FB1FFA80F84FF6FF7000EA94
:10062000041404EB080084B200BF1A480068800B71
:100630000028FAD01748806940F004001549886105
:100640000846806940F4804088611348006820F4BF
:100650007F60114908600846006840F40B6008603C
:100660000C48C06840F480400A49C8600846C06829
:1006700020F48040C86009480480001D008842F2D0
:10068000080108430549091D0880BDE8F09F0000E6
:1006900040420F00001002400408014008380140A9
:1006A00000BFFEE770477047704710B500F002F8D2
:1006B00010BD00000CB50020019000903348006888
:1006C00040F480303149086000BF3048006800F4D1
:1006D000003000900198401C0190009818B90198D2
:1006E000B0F5A06FF1D12948006800F4003010B1D6
:1006F0000120009001E0002000900098012843D1E3
:100700002348006840F0100021490860084600684E
:1007100020F0030008600846006840F0020008600E
:100720001A484068194948600846406848600846C9
:10073000406840F4806048600846406820F47C10BF
:1007400048600846406840F4E81048600846006881
:1007500040F08070086000BF0C48006800F0007036
:100760000028F9D00948406820F003000749486094
:100770000846406840F00200486000BF03484068F7
:1007800000F00C000828F9D10CBD00000010024058
:10079000002002407047000010B51348006840F088
:1007A00001001149086008464068104908400E4998
:1007B0004860084600680E4908400B490860084632
:1007C000006820F4802008600846406820F4FE009D
:1007D00048604FF41F008860FFF767FF4FF000602C
:1007E0000449086010BD0000001002400000FFF83E
:1007F000FFFFF6FE08ED00E000BFFEE701464FF008
:1008000033324FF0553000EA5100091A01EA020074
:1008100002EA9103C11801EB111000F00F3101EB56
:10082000112101EB114101F03F007047214880691F
:1008300040F040001F4988611F48006820F4706044
:100840001D4908600846006840F4006008601A48C6
:100850000C30006840F0040017490C31086015485E
:10086000806940F00100134988611448806820F4D1
:100870007060124988600846806840F48060886033
:100880000F48006840F004000D4908600C480C3027
:10089000006840F004000A490C31086065210948ED
:1008A00001700948006840F480704FF0E021C1F801
:1008B0000001704700100240001801400000014094
:1008C0000004014008E400E000E100E02048806905
:1008D00040F004001E4988611E48006820F00F00A7
:1008E0001C4908600846006840F008000860194884
:1008F0000C30006820F0010016490C3108601448E3
:10090000806940F00100124988611348806820F036
:100910000F00114988600846806888600F480068A9
:1009200040F001000D4908600C480830006840F0B4
:1009300001000A4908310860352109480170094859
:10094000006840F040004FF0E021C1F8000170471E
:100950000010024000080140000001400004014076
:1009600006E400E000E100E0FFF7C4FDFFF776FDDC
:10097000FFF75EFDFFF7D4FD052000F017F8FFF745
:1009800055FFFFF7A3FF00F035F820200549086068
:10099000054908604FF416514820FFF717FE00BFC5
:1009A000FEE70000140C01401418014010B5430785
:1009B0005A0D074B1B684FF6FF042340044C23607D
:1009C0001946044B194341EA02031946236010BD3E
:1009D0000CED00E00000FA050149087070470000C6
:1009E0000400002002488068C0F3802070470000A7
:1009F000001001402248806940F0100020498861C1
:100A00002048406820F47F401E49486008464068FE
:100A100040F4084048600846C06840F40060C86080
:100A20000846C06840F48060C8601548806940F09E
:100A30000100134988611448006920F4704112488C
:100A40000161006940F400510F4801610F480068DE
:100A500040F400600D4908600C480C30006840F418
:100A600000600A490C3108601021094801700948EA
:100A7000006840F480704FF0E021C1F80401704735
:100A8000001002400010014000000140000401403D
:100A900028E400E004E100E090EA010F48BF81F0A3
:100AA000004100F12E82421A3CBF801A89184FEA99
:100AB000D0524FF07F4C1CEA410FA2EBD15318BF2C
:100AC0009CEA026F00F03B804FF0004C4CEA0020A3
:100AD0004CEA012121FA03FC10EB0C0C1ED202F1AE
:100AE000FF325FEA1C2040EBC25038BF70471CF059
:100AF0007F0F4FEA400C18BFBCF17F4F38BF7047E3
:100B0000C3F12003994008BF20F00100BCF17F4FE2
:100B100038BF7047A0F1C04000F0DDB94FEA3C009B
:100B2000000A40EBC25028BF1CF0FF0F4FEA400CF8
:100B3000E6D018BFBCF17F4F38BF7047EAE79CEAA8
:100B4000026F05D010EA5C0F08BF00F0004070474C
:100B500010B500F07AF900BF64FBBE3E4FF47F0C85
:100B60001CEAD0121EBF1CEAD11392EA0C0F93EAC2
:100B70000C0F00F0858090EA010F48BF42F48072AC
:100B800040F4000C41F400002CF07F4120F07F4045
:100B900000B58142A2EB03020FF2081CACEB504EF1
:100BA000C0F100009EF800E04FEA4E0E00FB0EFC84
:100BB00038BF49004FEA2C1C02F5FA020CFB0EF379
:100BC0004FEACE1E4FEA112C4FEAC1210EEB635EB5
:100BD00042EB22420EFB0CFC4FEA1C5300FB0311BC
:100BE0004FEA112C4FEA01310EFB0CFC4FEADC4CB2
:100BF00000FB0C11C14228BF09184CEB03335DF810
:100C000004EB10EB410143EBC250B2F57C0F38BF4F
:100C1000704729D512F0F00F1CBF00F1C04000F062
:100C200000407047008182838485868788898B8C09
:100C30008D8E8F919293959697999A9C9D9FA0A245
:100C4000A3A5A7A8AAACAEB0B2B3B5B7B9BCBEC095
:100C5000C2C5C7C9CCCED1D4D7D9DCDFE2E6E9EC36
:100C6000F0F3F7FAFE0000004FEA400C0CF1807C34
:100C7000BCF17E4F28BF7047B0F1C04000F02BB9E7
:100C800090EA010F0CEAD11348BF42F4807262452A
:100C900038BF634507D213F47F0F16D080EA0100F6
:100CA00000F00040704710B500F0CFF8097EFC3E20
:100CB00000F005B880EA010000F00040704780EACB
:100CC000010000F0004000F006B912F47F0F04BFED
:100CD0000248704780EA010000F0FDB80000C07FC4
:100CE000C10DD1F19E0206DB4FEA002343F0004321
:100CF00023FA02F07047004207D54FEA4001B1F1F4
:100D0000FE4F02D24FF00000704710B500F09DF882
:100D100049922480002070476FEA2000704700004D
:100D2000B0FA80F310FA03F2C3F19D030AD0D9059B
:100D300001EB1220530638BF704700F1010008BFD5
:100D400020F00100704700004FF47F0C1CEAD01225
:100D50001EBF1CEAD11392EA0C0F93EA0C0F00F0AD
:100D6000478090EA010F48BF42F480724FF0004C78
:100D70004CEA00204CEA012102EB0302A0FB011324
:100D8000A2F50002002918BF43F001035B0028BF51
:100D90004FEA330342EB22425FEA132C4CEBC25082
:100DA0002EBFBCEB436FB2F57C0F70474FEA036C6C
:100DB000BCF1004F08BF20F00100B2F57C0F38BF36
:100DC00070470BD582F0FF0212F5803FC8BF704715
:100DD00000F1C040D8BF00F00040704700F5000CA3
:100DE0005FEA4C0C48BF7047B0F1C04000F073B8E8
:100DF00090EA010F0CEAD11348BF42F480726245B9
:100E000038BF634504D280EA010000F0004070471B
:100E100010B500F01AF800BF8900013E00F007B8D5
:100E200000F009B85FEA410C5FEA1C6C08D080EA68
:100E3000010000F050B85FEA400C5FEA1C6CF6D18C
:100E40004FF00040A0F5800070470EF1020E2EF02A
:100E5000030E5EF8044B244204D44FEA4102B2F17F
:100E60007F4F11D84FEA4003B3F17F4F0CD80ED11A
:100E70004FEAD07CB2F17F4F0CEB4C0C0CF1020C22
:100E800008BF4CEBD17C04E04FF0080C01E04FEAC6
:100E9000D17C0CEB4C0324FA03F404F00704B4F106
:100EA000040C06D20EEB840CBDE810404CF0010C93
:100EB0006047DFE80CF0070802024FF00040A0F5A1
:100EC000800010BD0846420018BFD2F1807288BF72
:100ED00000F0004010BDFF2141EAD050C00570472E
:100EE00080F0004090EA010F7FF5DDAD81F0004118
:100EF00000F007B890EA010F48BF81F000413FF5CC
:100F0000D2AD421A04D882F00042A0EB0200114494
:100F10004FEAD0524FF07F4C1CEA410FA2EBD15365
:100F200018BF9CEA026F4AD04FF0004C4CEA0020F8
:100F30004CEA012121FA03FCB0EB0C0C0FD412F0A7
:100F4000FE0F36D05FEA4C001DD5001240EBC250B8
:100F500038BF70471CF03F0F18BF70470BE0A2F17D
:100F600001025FEA1C2040EBC25038BF70471CF002
:100F70007F0F18BF7047C3F12003994014BF401E74
:100F800020F00100704780084FEA122308BF704725
:100F9000B0FA80FCA2EB0C02CCF1280C60FA0CF049
:100FA00093EA122F04BF00EBC25070474FEAC370A0
:100FB0007047130A5FEADC1008BF7047F6E79CEA47
:100FC000026F04D010EA5C0F08BF0020704710B514
:100FD000FFF73BFF40DFF63E81F000407047000026
:100FE0000010000800000020100000006C01000844
:100FF00010100008100000206006000088010008A2
:1010000000000000000000000000000000000000E0
:04000005080001CD21
:00000001FF
