:020000040800F2
:1000000090060020CD0100082904000885020008A0
:10001000250400087F020008150600080000000003
:100020000000000000000000000000002D04000897
:1000300083020008000000002B04000819050008D6
:10004000E7010008E7010008E7010008E7010008F0
:10005000E7010008E7010008E7010008E7010008E0
:10006000E7010008E7010008E7010008E7010008D0
:10007000E7010008E7010008E7010008E7010008C0
:10008000E7010008E7010008E7010008E7010008B0
:10009000E7010008E7010008E7010008E7010008A0
:1000A000E7010008E7010008E7010008E701000890
:1000B000E7010008A5050008E9050008E7010008B8
:1000C000E7010008E7010008E7010008E701000870
:1000D000E7010008E7010008E7010008E701000860
:1000E000E7010008E7010008E7010008E701000850
:1000F000E7010008E7010008E7010008E701000840
:10010000E7010008E7010008E7010008E70100082F
:10011000E7010008E7010008E7010008E70100081F
:10012000E7010008E7010008E7010008E70100080F
:1001300000F002F800F03AF80AA090E8000C8244BF
:100140008344AAF10107DA4501D100F02FF8AFF29C
:10015000090EBAE80F0013F0010F18BFFB1A43F0A5
:10016000010318477806000098060000103A24BFE3
:1001700078C878C1FAD8520724BF30C830C144BF0C
:1001800004680C607047000000230024002500264E
:10019000103A28BF78C1FBD8520728BF30C148BFEA
:1001A0000B6070471FB51FBD10B510BD00F031F8D2
:1001B0001146FFF7F7FF00F039FA00F04FF803B4EB
:1001C000FFF7F2FF03BC00F053F800000948804736
:1001D00009480047FEE7FEE7FEE7FEE7FEE7FEE729
:1001E000FEE7FEE7FEE7FEE704480549054A064B41
:1001F000704700004505000831010008900000200C
:100200009006002090020020900200207047704766
:100210007047754600F028F8AE460500694653461B
:1002200020F00700854618B020B5FFF7DDFFBDE8D8
:1002300020404FF000064FF000074FF000084FF04D
:10024000000B21F00701AC46ACE8C009ACE8C009DE
:10025000ACE8C009ACE8C0098D4670470446AFF36E
:1002600000802046FFF7ABFF004870472C000020BD
:1002700001491820ABBEFEE726000200704700BF10
:10028000FEE7704700BFFEE70848806940F00800BD
:10029000064988610648006820F00F00044908609C
:1002A0000846006840F003000860704700100240F4
:1002B000040C01401F48806940F004001D4988611A
:1002C0000846806940F0080088610846806940F06F
:1002D000400088611848006820F4700016490860E2
:1002E0000846006840F4401008601448006814494B
:1002F00008401249086008460068124908430F493F
:1003000008600E480C30006820F00F000B490C31DB
:1003100008600846006840F00C0008600A48006861
:1003200020F00F00084908600846006840F0080007
:100330000860704700100240000C014000180140A6
:10034000FF000FFF00883000000801400848806966
:1003500040F00800064988610648006820F47000F3
:10036000044908600846006840F44010086070477F
:1003700000100240000C014007210020254A52686D
:10038000254B1A40234B5A601A461268234B1A40D9
:10039000204B1A601A46126842F480321A6000BF7D
:1003A0001C4A1268520C002AFAD04FF48062194B92
:1003B0005A601A46526842EA81425A601A465268A6
:1003C00042F480325A601A46526842F480325A60CF
:1003D000134A126842F03202114B1A600D4A126839
:1003E00042F080720B4B1A6000BF0A4A1268520E2C
:1003F000002AFAD0074A526842F00202054B5A60BE
:1004000005E0044A5268C2F3870000F003000228A6
:10041000F7D17047001002400000FFF8FFFFF6FE22
:100420000020024000BFFEE770477047704710B5DC
:1004300000F002F810BD00000CB500200190009003
:100440003348006840F480303149086000BF3048CC
:10045000006800F4003000900198401C0190009862
:1004600018B90198B0F5A06FF1D12948006800F4DF
:10047000003010B10120009001E0002000900098B1
:10048000012843D12348006840F01000214908604A
:100490000846006820F0030008600846006840F045
:1004A000020008601A4840681949486008464068D8
:1004B00048600846406840F48060486008464068EC
:1004C00020F47C1048600846406840F4E81048601A
:1004D0000846006840F08070086000BF0C48006863
:1004E00000F000700028F9D00948406820F00300AF
:1004F000074948600846406840F00200486000BF75
:100500000348406800F00C000828F9D10CBD000039
:10051000001002400020024000200DE0084951F880
:100520002010012906D9064951F82010491E044A15
:1005300042F82010411CC8B20A28EFDB70470000C7
:100540000400002010B51348006840F00100114974
:10055000086008464068104908400E49486008464F
:1005600000680E4908400B4908600846006820F4FE
:10057000802008600846406820F4FE0048604FF480
:100580001F008860FFF753FF4FF0006004490860C8
:1005900010BD0000001002400000FFF8FFFFF6FE53
:1005A00008ED00E000B520200D490860091F086033
:1005B000091D086000F030F820200949086000F0AB
:1005C00031F82020064908600648008820F0010024
:1005D000044908800846008820F00100088000BD1A
:1005E000140C0140100400400848008800F001008D
:1005F00028B10748006880F02000054908600348DA
:10060000008820F001000149088070471008004070
:100610000C18014000BFFEE7202001490860704728
:10062000100C014000B5FFF7F7FF00BDFFF78EFE8D
:10063000FFF740FEFFF728FEFFF79EFE052000F0C3
:1006400055F82020234908602349086001202349E8
:1006500008601920486000F05FF8482143F69720B1
:1006600000F068F835E01D480068012822D11B49D8
:1006700008601B48007828B11A480088401C1949B6
:10068000088004E017480088401E16490880154875
:10069000008841F28831884202DD0020104908704C
:1006A0001048008810B901200D4908700D480088D5
:1006B0000D4908800948406801280AD119200749D6
:1006C00048600548001F006880F020000249091FAB
:1006D0000860C8E7100C0140101801400400002019
:1006E00002000020000000203804004010B543073D
:1006F0005A0D074B1B684FF6FF042340044C236040
:100700001946044B194341EA02031946236010BD00
:100710000CED00E00000FA0500204FF0E021086138
:10072000034848610846006940F0030008617047CB
:100730008F5F0100254A926942F00802234B9A61BB
:10074000234A126822F47002214B1A601A4612687A
:1007500042F430021A601D4A926942F001021B4BBA
:100760009A611C4A526822F440621A4B5A601A4637
:10077000526842F400625A60144AD26942F002029E
:10078000124BDA61144A1080121F1180124A143A77
:10079000128842F4E042104B143B1A801A46128829
:1007A00042F400621A800C4A0C3A128842F010029D
:1007B000094B0C3B1A808022074B2C3B1A801A46AF
:1007C000128842F001021A807047000000100240B7
:1007D000000C0140000001402C040040FC07000810
:1007E00000000020040000006C0100080008000860
:1007F000040000208C0600008801000800000100B1
:04000005080001CD21
:00000001FF
