:020000040800F2
:10000000080A00200D020008A90A00081D070008C0
:10001000A50A000861060008550C00080000000051
:10002000000000000000000000000000AD0A000811
:100030006506000800000000AB0A0008990B0008E4
:1000400027020008270200082702000827020008EC
:1000500027020008270200082702000827020008DC
:1000600027020008270200082702000827020008CC
:1000700027020008270200082702000827020008BC
:1000800027020008270200082702000827020008AC
:10009000270200082702000827020008270200089C
:1000A000270200082702000827020008270200088C
:1000B000270200082702000827020008270200087C
:1000C000270200082702000827020008270200086C
:1000D000270200082702000827020008270200085C
:1000E00075060008270200082702000827020008FA
:1000F000270200082702000827020008270200083C
:10010000270200082702000827020008270200082B
:10011000270200082702000827020008270200081B
:10012000270200082702000827020008270200080B
:1001300000F002F800F041F80AA090E8000C8244B8
:100140008344AAF10107DA4501D100F036F8AFF295
:10015000090EBAE80F0013F0010F18BFFB1A43F0A5
:1001600001031847A42D0000C42D0000103A24BF3D
:1001700078C878C1FAD8520724BF30C830C144BF0C
:1001800004680C607047000000230024002500264E
:10019000103A28BF78C1FBD8520728BF30C148BFEA
:1001A0000B607047642900F08D80002070471FB5F8
:1001B00000F075F91FBD10B510BD00F01AFA114618
:1001C000FFF7F5FF01F0CCFF00F038FA03B4FFF7BA
:1001D000F2FF03BC00F03EFA0B49D1F800C04A68B8
:1001E0005CF8043B1068184442F8040B8C4528BFA7
:1001F000A1F1DC0C8A4228BFA1F1DC02C1F800C0E9
:100200004A6020F000407047A00300200948804762
:1002100009480047FEE7FEE7FEE7FEE7FEE7FEE7E8
:10022000FEE7FEE7FEE7FEE704480549054A064B00
:1002300070470000F50B0008310100080804002099
:10024000080A002008060020080600200FB41CB58C
:10025000074B06AA7B4469460090059800F0B1F967
:100260000020694600F0C0F91CBC5DF814FB0000DA
:100270009103000070B5044685690068C10601D588
:10028000302600E02026C00707D070BDD4E9012148
:1002900030469047206A401C20626D1EF6D570BD26
:1002A00070B5044685690078C00707D170BDD4E9F0
:1002B000012120209047206A401C20626D1EF6D547
:1002C00070BD00002DE9F041064600241068752934
:1002D000314616A510D0AFF30080002802DA404264
:1002E00013A507E031688A0701D512A502E0490786
:1002F00004D511A5012401E0AFF3008000210A22FA
:1003000006F1240709E0B0FBF2FCB0FBF2F302FBBC
:100310001C00303078541846491C0028F3D123467D
:100320002A463046BDE8F04100F0ECB8000000007D
:100330002D0000002B000000200000002DE9F05FE0
:10034000894604464FF0000ADFF824B1FB44C0F8A8
:1003500020A02046E168884700287DD0252806D0C7
:10036000D4E901219047206A401C2062F1E7002572
:100370005F462046E16888472028064607DB312E85
:1003800005D2B81910F8200C08B10543F1E7A80709
:1003900001D525F00405C4F81CA00027C4F818A056
:1003A0002A2E09D0304600F057FC38B304EB8708FA
:1003B000303EC8F8186019E059F8041B204604EBD9
:1003C00087029161E1688847012F064618D1E069EC
:1003D000002820DA25F020051DE0D8F8180000EBF1
:1003E000800006EB40003038C8F818002046E1686D
:1003F0008847064600F030FC0028EED1012F0AD0D5
:100400002E2E08D12046E16888477F1C0646022F21
:1004100045F02005C4DBA069002803DA404245F01E
:100420000105A061E80701D025F01005A6B1A6F1ED
:100430004100192802D8203645F400654A46314665
:10044000204625604D46FFF7ADFE60B1012807D07C
:10045000ED1D25F0070000E007E000F1080978E74E
:1004600005F1040975E730467AE7206ABDE8F09F98
:10047000A62B00000B4910B5A1F17C020A4CC2E981
:100480003712372106E000EB104342F82130074BCA
:1004900000FB03400B1EA1F10101F4DC10BD0120A3
:1004A000E8E7000040030020E119D666CD0D010009
:1004B0004FF0000200B5134694469646203922BFFD
:1004C000A0E80C50A0E80C50B1F12001BFF4F7AF48
:1004D000090728BFA0E80C5048BF0CC05DF804EB2A
:1004E000890028BF40F8042B08BF704748BF20F898
:1004F000022B11F0804F18BF00F8012B7047704796
:10050000704770472DE9F0470D46994692460446DC
:1005100000F124080168880604D5E06921F0100183
:10052000216000E00120A84201DD471B00E0002718
:10053000A1697A1902EB0900081AA0612078C006A7
:1005400002D42046FFF796FE002608E0D4E90121F8
:100550001AF806009047206A401C761C20624E451F
:10056000F4DB2078C0060AD52046FFF783FE06E0BC
:10057000D4E9012130209047206A401C2062381EB7
:10058000A7F10107F4DC07E0D4E9012118F8050020
:100590009047206A401C2062281EA5F10105F3DC6B
:1005A0002046FFF77DFE2078000602D50220BDE838
:1005B000F0870120FBE7000001694A1C026108780E
:1005C000704700B58FB0CDE9013100210591054993
:1005D0007944CDE9031011466846FFF7AFFE0FB02E
:1005E00000BD0000E5FFFFFF0A6802F8010B0A608A
:1005F0007047754600F028F8AE4605006946534638
:1006000020F00700854618B020B5FFF70DFEBDE8C5
:1006100020404FF000064FF000074FF000084FF069
:10062000000B21F00701AC46ACE8C009ACE8C009FA
:10063000ACE8C009ACE8C0098D4670470446AFF38A
:1006400000802046FFF7C2FD00487047A803002045
:100650007047000001491820ABBEFEE726000200EB
:1006600000BFFEE77047002100E0491C8142FCD337
:10067000704700002448006800F40060002841D062
:1006800022498968C1F380202149096839B930BB02
:1006900001211F4A116000211E4A11602DE01C49F2
:1006A000096899B11A49096808290FD818490968D1
:1006B000491E00FA01F1174A12681143154A1160E8
:1006C00013490968491C124A116016E0104909686B
:1006D000092905D10E490968491C0D4A11600CE031
:1006E0000B4909680A2908D1012803D10949096879
:1006F000094A11600021064A11604FF40061024A64
:10070000116000BF70470000140401400010014058
:10071000040000202C0000200800002000BFFEE79D
:100720000848806940F0080006498861064800686A
:1007300020F00F00044908600846006840F00300FC
:100740000860704700100240040C01401F48806997
:1007500040F004001D4988610846806940F00800A7
:1007600088610846806940F0400088611848006848
:1007700020F47000164908600846006840F44010F4
:100780000860144800681449084012490860084687
:100790000068124908430F4908600E480C30006891
:1007A00020F00F000B490C3108600846006840F04B
:1007B0000C0008600A48006820F00F000849086033
:1007C0000846006840F008000860704700100240CA
:1007D000000C014000180140FF000FFF00883000AE
:1007E000000801400848806940F008000649886117
:1007F0000648006820F47000044908600846006854
:1008000040F440100860704700100240000C0140A6
:10081000014601F007021202054B18684FF6FF036C
:100820001840044B18431043014B186070470000F8
:100830000CED00E00000FA052548806940F010004A
:10084000234988612348406820F47040214948606A
:100850000846406840F4004048600846C06840F4DC
:100860000060C8600846406820F470604860084630
:10087000406840F4006048601548806940F001001D
:10088000134988611448006920F4704112480161DD
:10089000006940F40051104801611048006840F4BC
:1008A00000600E4908600D480C30006840F400609C
:1008B0000A490C310860652109480170094800683F
:1008C00040F480704FF0E021C1F80401704700004F
:1008D00000100240001001400000014000040140EF
:1008E00028E400E004E100E000204FF0E02108618E
:1008F0000448486108460069034908434FF0E02175
:1009000008617047905F010003000100072100208B
:10091000254A5268254B1A40234B5A601A461268E2
:10092000234B1A40204B1A601A46126842F4803258
:100930001A6000BF1C4A1268520C002AFAD04FF409
:100940008062194B5A601A46526842EA81425A60E4
:100950001A46526842F480325A601A46526842F48B
:1009600080325A60134A126842F03202114B1A6008
:100970000D4A126842F080720B4B1A6000BF0A4A9F
:100980001268520E002AFAD0074A526842F0020258
:10099000054B5A6005E0044A5268C2F3870000F034
:1009A00003000228F7D17047001002400000FFF852
:1009B000FFFFF6FE002002402DE9F05F05460E46DF
:1009C000300101F0EBFD8146314905FB01F001F0FA
:1009D000E5FD8246494601F0FFFC0746384601F036
:1009E000BDFD84B2204601F0D9FD8346394601F0B1
:1009F000B5FE82464FF0834101F0E4FD814601F0EF
:100A0000ADFD1FFA80F84FF6FF7000EA041404EB06
:100A1000080084B21F4800681F4908401D4908604B
:100A20000846006840F48030086000BF194800683C
:100A3000400C0028FAD01748806940F0040015499E
:100A400088610846C06940F40030C86113480068F6
:100A500020F47F40114908600846006840F40B40CC
:100A600008600C48006940F400300A4908610846F3
:100A7000006920F40030086109480480001D0088E6
:100A800042F2080108430649091D0880BDE8F09FAD
:100A900040420F0000100240FFFFF6FE0008014038
:100AA0000844004000BFFEE770477047704710B52C
:100AB00000F002F810BD00000CB50020019000907D
:100AC0003348006840F480303149086000BF304846
:100AD000006800F4003000900198401C01900098DC
:100AE00018B90198B0F5A06FF1D12948006800F459
:100AF000003010B10120009001E00020009000982B
:100B0000012843D12348006840F0100021490860C3
:100B10000846006820F0030008600846006840F0BE
:100B2000020008601A484068194948600846406851
:100B300048600846406840F4806048600846406865
:100B400020F47C1048600846406840F4E810486093
:100B50000846006840F08070086000BF0C480068DC
:100B600000F000700028F9D00948406820F0030028
:100B7000074948600846406840F00200486000BFEE
:100B80000348406800F00C000828F9D10CBD0000B3
:100B9000001002400020024012480068002804DDD6
:100BA00010480068401E0F4908600F48007802286E
:100BB00017D10E480068401C0C49086008460068C0
:100BC00064280EDB0020086009480068002805DD65
:100BD00007480068401E0649086002E003200249F9
:100BE000087070470C000020000000202400002046
:100BF0002000002010B51348006840F001001149A2
:100C0000086008464068104908400E494860084698
:100C100000680E4908400B4908600846006820F447
:100C2000802008600846406820F4FE0048604FF4C9
:100C30001F008860FFF73BFF4FF000600449086029
:100C400010BD0000001002400000FFF8FFFFF6FE9C
:100C500008ED00E000BFFEE730380A2801D201208D
:100C6000704700207047000070B500BF00250024C9
:100C70005FE0002044E000EBC001344A02EBC10118
:100C800001EBC4014968491CC9BB411C01EBC1010E
:100C900002EBC10101EBC4014968491C79B3411C55
:100CA00001EBC10102EBC10151F8341000EBC002AD
:100CB000264B03EBC20242F83410411C01EBC10188
:100CC0001A4602EBC10101EBC401496800EBC00206
:100CD00003EBC20202EBC40251600022411C01EB93
:100CE000C10103EBC10141F83420521E411C01EB4C
:100CF000C10103EBC10101EBC4014A600125401CA5
:100D00000828B8DB124800EBC4004068401C78B9E2
:100D100000210F4840F83410FFF75EFA062190FBDF
:100D2000F1F201FB12010A4800EBC4004160012509
:100D3000641C092C9DDB2DB100F0E8F84EF6602014
:100D4000FFF791FC002D91D170BD00003C00002008
:100D50007C02002070B505460C46601E1FE0691E2F
:100D600019E0002916DB092914DA002812DB09280A
:100D700010DA4FF0FF3200EBC0030C4E06EBC3035A
:100D800003EBC1035A60002200EBC00306EBC30370
:100D900043F83120491C6A1C9142E2DD401C611C71
:100DA0008842DCDD00F0B2F870BD00003C0000209D
:100DB00010B50446002011E04FF0FF3100EBC002F7
:100DC000094B03EBC20202EBC4025160002100EBAD
:100DD000C00203EBC20242F83410401C0928EBDBCE
:100DE00000F094F810BD00003C00002010B504464F
:100DF000002011E04FF0FF3104EBC402094B03EB7C
:100E0000C20202EBC0025160002104EBC40203EBFA
:100E1000C20242F83010401C0928EBDB00F076F8E3
:100E200010BD00003C00002008B54FF4A070002366
:100E3000F0221946009045F28A2001F015F84FF48F
:100E400096700A23DC2219460090002001F00CF86D
:100E500045F28A204FF6FF7303A24FF49171009080
:100E6000502001F04FF908BD494552473338313021
:100E70000000000000B587B0FFF7D6FF00204FF458
:100E8000784314A2E6210090502001F03BF9144869
:100E900014A1026802A8FFF7D9F900204FF6FF73EA
:100EA00002AAC8210090552001F02CF900204FF62D
:100EB000E0730FA23C210090462001F023F90020AE
:100EC0004FF6E0730EA228210090502001F01AF98D
:100ED00007B000BD47414D45204F56455200000028
:100EE0001000002046494E414C3A20256400000085
:100EF0005052455353204B45592055500000000097
:100F0000544F2052455345540000000038B5BE20D0
:100F10002D2302461921009041F2A20000F0A4FF07
:100F2000002409E0002504E02146284600F0D8F915
:100F30006D1C092DF8DB641C092CF3DB00F0C6FAEC
:100F400038BD000008B5FFF76FFF00204FF6FF73B4
:100F50001EA24FF487710090322001F0D3F80020D8
:100F60004FF6FF731EA2E6210090282001F0CAF878
:100F700000204FF6FF731DA2D2210090282001F01F
:100F8000C1F800204FF6FF731BA2BE21009028205D
:100F900001F0B8F800204FF6FF731AA2AA210090C2
:100FA000282001F0AFF800204FF4784319A28221E5
:100FB0000090282001F0A6F800204FF6E0731AA256
:100FC0003C210090462001F09DF808BD2D2D2048C1
:100FD0004F5720544F20504C4159202D2D000000D8
:100FE0004B657920383A2055500000004B65792038
:100FF000323A20444F574E004B657920343A204C0A
:10100000454654004B657920363A205249474854AA
:10101000000000004B657920353A2053454C45438C
:10102000542F5357415000005052455353204B45C5
:10103000592031002DE9FF4F83B005460E469346F7
:101040001420B3B2A9B20246009041F2A20000F00F
:101050000BFF0120B3B2A9B21422009044F2082081
:1010600000F002FF0120009006F1130083B2A9B244
:10107000142244F2082000F0F7FE1420B3B2A9B203
:101080000122009044F2082000F0EEFE1420B3B2DA
:10109000009005F1130081B2012244F2082000F013
:1010A000E3FE0BF1010010B907B0BDE8F08F05F1C8
:1010B0000A0906F10A08894830F81B000290BBF1C2
:1010C000060F0ED2DFE80BF0030E4370A0B70A2024
:1010D0000090701D83B2681D81B20A22029800F050
:1010E000C3FEBFE001200090301D83B2E81D81B235
:1010F0000622029800F0B8FE01200090701D83B215
:10110000681D81B20A22029800F0AEFE082000900D
:10111000B01D83B2281D81B20C22029800F0A4FEFB
:101120000120009006F10E0083B2681D81B20A22F0
:10113000029800F099FE0120009006F10F0083B2A2
:10114000E81D81B20622029800F08EFE8AE000249B
:101150001DE06000471CA9EB040A01200090C4F1C7
:101160000500404483B2BAB21FFA8AF1029800F037
:101170007BFE01200090C4F10500A8EB000083B2C3
:10118000BAB21FFA8AF1029800F06EFE641C062CB7
:10119000DFDB01201FFA88F30090281D81B20D22A9
:1011A000029800F061FE5DE0002413E06000871CFF
:1011B000384607EBD071A9EB610A01200090A8F135
:1011C0000500204483B2BAB21FFA8AF1029800F0F7
:1011D0004BFE641C052CE9DB002412E0C4F10A0775
:1011E000384607EBD071A9EB610A0120009008EBAB
:1011F000040083B2BAB21FFA8AF1029800F034FEFA
:10120000641C062CEADB2DE0002411E0C4F10B077E
:101210000120CDE9000707EBD770A9EB600081B290
:10122000701D204483B2BAB2029800F01DFE641C07
:101230000B2CEBDB16E00E200090F01C83B205F1C6
:10124000080081B20422029800F00EFE04200090F3
:1012500006F1080083B2E81C81B20E22029800F069
:1012600003FE00BF00BF069801280CD102200090A9
:10127000A8F1010083B2E81C81B20E224FF6FF7084
:1012800000F0F2FD27E0069802280CD10E20009015
:10129000F01C83B2A9F1010081B202224FF6FF7067
:1012A00000F0E2FD17E00698032814D10620009014
:1012B000A8F1030083B2A9F1030081B206224FF620
:1012C000FF7000F0D1FD1FFA88F11FFA89F04FF48A
:1012D000784200F0A1FD00BFE6E60000EA2E00081B
:1012E0002DE9F84F05460E4605EB85001E2101EB62
:1012F000800706EB8600322101EB800806EBC60072
:10130000334901EBC00000EBC500D0F8049006EBB8
:10131000C60001EBC00050F835A053464A4641468E
:101320003846FFF787FE2B48006885424DD12A4892
:101330000068864249D12948006810B14FF47840CE
:1013400001E04FF6FF70834600243BE0012000904F
:1013500008EB040083B26000C0F1140082B23819B7
:1013600081B2584600F080FD0120009008F1130082
:10137000001B83B26000C0F1140082B2381981B240
:10138000584600F071FD6000C0F1140080B200907A
:1013900008EB040083B2381981B20122584600F0EC
:1013A00063FD6000C0F1140080B2009008EB0400FF
:1013B00083B207F11300001B81B20122584600F0EE
:1013C00053FD641C022CC1DB00BFBDE8F88F000098
:1013D0003C00002014000020180000201C00002009
:1013E00008B5FFF721FD002040F2FF731EA24FF465
:1013F00082710090462000F085FE00204FF6FF73BA
:101400001DA2C8210090462000F07CFE00204FF66F
:10141000FF731CA2B42100902D2000F073FE002069
:101420004FF6FF731CA2A02100906E2000F06AFE10
:1014300000204FF6FF7319A28C2100901E2000F0AF
:1014400061FE00204FF6E0731AA23C2100904B2071
:1014500000F058FE00204FF6E07319A228210090FA
:10146000502000F04FFE08BD4A4557454C204C45E2
:1014700047454E440000000044657369676E65642B
:101480002062790031313535313834323636204CEE
:10149000616D204368690000260000003131353558
:1014A00032313433313120597520486F204D696E07
:1014B000670000005052455353204B4559203100DE
:1014C000544F2053544152540000000030B589B0AD
:1014D00019204FF48273DC220A2100904AF2345022
:1014E00000F0C2FC164817A1026802A8FEF7AEFE83
:1014F0004AF23450002302AA40F2091100900F2052
:1015000000F000FE114800683C2190FBF1F40F4808
:10151000006890FBF1F201FB12052B4622460CA15C
:1015200002A8FEF793FE4AF234504FF4784302AA21
:1015300040F209110090782000F0E4FD09B030BDC0
:10154000100000205054533A202564002000002051
:1015500054494D4520253032643A2530326400002C
:10156000F0B5D1B000254FF4A2716846FEF7A0FF98
:101570000020C5E00122012145E000EBC003DC4E64
:1015800006EBC30303EBC1035E6800EBC003D84F57
:1015900007EBC3074B1E07EBC3035B689E421AD1E0
:1015A00000EBC003D24E06EBC30303EBC1035B6841
:1015B0005B1C83B100EBC00306EBC30353F831306F
:1015C0004BB900EBC00306EBC3064B1E56F8333095
:1015D0000BB9521C16E0042A08D1012600EBC00307
:1015E000C34F07EBC3074B1E47F83360052A08D1EA
:1015F000032600EBC003BE4F07EBC307CB1E47F823
:1016000033600122491C0929B7DB042A06D10121D4
:1016100000EBC003B64E06EBC3031964052A06D1DE
:10162000032100EBC003B24E06EBC3031963002194
:1016300063E000EBC003AE4E06EBC30353F831305A
:10164000F3BB00EBC00306EBC3064B1C56F833306C
:10165000B3BB00EBC003A64E06EBC3068B1C56F8CB
:1016600033306BBB00EBC003A14E06EBC30303EBAF
:10167000C1035B685B1C1BB300EBC00306EBC30339
:1016800003EBC1035E6800EBC003994F07EBC30790
:101690004B1C07EBC3035B689E422DD100EBC003DC
:1016A000934E06EBC30303EBC1035E6800EBC0037C
:1016B0008F4F07EBC3078B1C07EBC3035B6800E08E
:1016C0001AE09E4218D1012300EBC0066F4607EBDB
:1016D000860646F82130012600EBC00307EB83079E
:1016E0004B1C47F8236000EBC0036F4607EB8307F2
:1016F0008B1C47F823600125491C072999DB401CF6
:101700000928FFF637AF0020BCE00122012145E0A7
:1017100001EBC103764E06EBC30303EBC0035E6827
:101720004B1E03EBC303724F07EBC30303EBC00372
:101730005B689E421AD101EBC1033E4606EBC30330
:1017400003EBC0035B685B1C83B101EBC10306EBD9
:10175000C30353F830304BB94B1E03EBC30306EB06
:10176000C30353F830300BB9521C16E0042A08D1D9
:1017700002264B1E03EBC3035D4F07EBC30343F885
:101780003060052A08D10326CB1E03EBC303584F54
:1017900007EBC30343F830600122491C0929B7DB7A
:1017A000042A03D10223534941F83030052A04D1D9
:1017B00003235049903941F8303000215FE001EBBC
:1017C000C1034B4E06EBC30353F83030F3BB4B1C45
:1017D00003EBC30306EBC30353F83030B3BB8B1CDE
:1017E00003EBC30306EBC30353F8303073BB01EBC9
:1017F000C10306EBC30303EBC0035B685B1C2BB3A5
:1018000001EBC10306EBC30303EBC0035E684B1C93
:1018100003EBC303364F07EBC30303EBC0035B6863
:101820009E422BD101EBC1033E4606EBC30303EB03
:10183000C0035E688B1C03EBC30307EBC30303EB1E
:10184000C0035B689E4219D1012300E016E001EB62
:10185000C1066F4607EB860646F8203001264B1C72
:1018600003EBC30307EB830343F820608B1C03EBFC
:10187000C30307EB830343F820600125491C0729B4
:101880009DDB401C0928FFF640AF002400201FE02C
:1018900000211AE000EBC0026B4603EB820252F813
:1018A00021208AB14FF0FF3200EBC003104E06EB4F
:1018B000C30303EBC1035A60002200EBC00306EB35
:1018C000C30343F83120641C491C0929E2DB401C96
:1018D0000928DDDB002C07DD04EB840006490968DC
:1018E00001EB400004490860284651B0F0BD0000FB
:1018F0003C0000207C020020100000202DE9F05F59
:10190000BF480068002876D0BE480068002872D121
:10191000BB480068BC490968884203D1BB480068DD
:10192000002869D14FF0000800260027B146B448CE
:10193000006873281AD004DC6B280FD0722807D1F6
:1019400007E074280FD07528F9D101274FF001085E
:10195000B0E04FF0FF374FF00108ABE04FF0FF363B
:101960004FF00108A6E00126B046A3E0A8480068B1
:1019700000EBC000A74901EBC000A749096850F877
:101980003140012C23D12002A449086042F210709A
:10199000FEF769FE2002A149091D08609C48006805
:1019A000FFF724FAFFF760F901E0FFF75DF9FFF7B1
:1019B000D7FD0028F9D19648016897480068FFF7DD
:1019C0008FFC0020964908604FF0010872E0022C5D
:1019D00025D1E0019149086042F21070FEF743FE04
:1019E000E0018E49091D08608B480068FFF7E0F9A7
:1019F000FFF73AF903E000E1F7E0FFF735F9FFF709
:101A0000AFFD0028F9D18248016883480068FFF7DC
:101A100067FC0020824908604FF001084AE0032C6F
:101A200027D14FF480707D49086042F21070FEF7B4
:101A30001AFE4FF480707949091D086074480168E6
:101A400075480068FFF786F9FFF70EF901E0FFF728
:101A50000BF9FFF785FD0028F9D16D4801686E4844
:101A60000068FFF73DFC00206D4908604FF0010859
:101A700020E06B48006808B9012000E000206849B8
:101A800008604FF001086248016863480068FFF78A
:101A900027FC6348006860B14FF480705F490860BC
:101AA00042F21070FEF7DFFD4FF480705B49091DB4
:101AB000086000BF00BFB8F1000F7DD00EB9002F45
:101AC00024D05748006810BB5348D0F800A05048B5
:101AD000D0F800B05048006884194D480068C51916
:101AE000002C13DB092C11DA002D0FDB092D0DDA88
:101AF000494804604648056059465046FFF7F0FBE8
:101B00004348016844480068FFF7EAFB5DE042484B
:101B1000006884193E480068C519002C54DB092C64
:101B200052DA002D50DB092D4EDA2B46224638487A
:101B300001683948006800F0AFFB35480168364855
:101B40000068FFF7CDFB29462046FFF7C9FB4CF2A2
:101B50005030FEF788FDFFF703FDB0B14FF4807001
:101B60002E49086047F23050FEF77DFD4FF480703B
:101B70002A49091D0860FFF777F801E0FFF774F8BC
:101B8000FFF7EEFC0028F9D111E02B462246204851
:101B900001682148006800F07FFB1D4801681E486D
:101BA0000068FFF79DFB29462046FFF799FB0020C0
:101BB0001B490860164800E012E0016816480068FA
:101BC000FFF78EFB4FF0010900BFB9F1000F01D004
:101BD000FFF77CFC0A200B49086005200B490860D0
:101BE000074800680849086004E008480068401E8B
:101BF00006490860002002490860BDE8F09F000027
:101C0000080000200C0000203000002034000020DC
:101C1000180000203C00002014000020100C01409F
:101C20001C00002070B500241CE0002517E00020F7
:101C300004EBC4015B4A02EBC10141F83500FEF739
:101C4000CBFA062190FBF1F201FB120004EBC40178
:101C5000544A02EBC10101EBC50148606D1C092D1E
:101C6000E5DB641C092CE0DB002043E000213EE0C2
:101C700000EBC0024B4B03EBC20202EBC102536804
:101C800000EBC002474C04EBC2044A1C04EBC20246
:101C9000526893422AD100EBC002424B03EBC202CE
:101CA00002EBC102536800EBC0023E4C04EBC204DD
:101CB0008A1C04EBC2025268934217D100EBC002A7
:101CC000384B03EBC2034A1C03EBC2025268521C9E
:101CD000062392FBF3F403FB142300EBC002314C08
:101CE00004EBC2044A1C04EBC2025360491C0729DE
:101CF000BEDB401C0928B9DB002042E000213DE0AA
:101D000001EBC102274B03EBC20202EBC002536896
:101D10004A1C02EBC202234C04EBC20202EBC002DB
:101D20005268934229D101EBC102234603EBC20260
:101D300002EBC00253688A1C02EBC20204EBC2022F
:101D400002EBC0025268934217D14A1C02EBC20256
:101D5000234603EBC20202EBC0025268521C062368
:101D600092FBF3F403FB14234A1C02EBC2020D4C5A
:101D700004EBC20202EBC0025360491C0729BFDB1F
:101D8000401C0928BADB00200749086004200749E5
:101D9000086007490860002006490860B420064929
:101DA000086070BD3C0000201000002014000020DE
:101DB000180000201C0000202000002000B5012099
:101DC00000F0C8F9112000F0C5F93A2000F0C2F97E
:101DD000552000F0B9F9292000F0BCF9362000F0B8
:101DE000B9F9C82000F0B0F900BD000008488069CA
:101DF00040F00800064988610648006820F00F009E
:101E0000044908600846006840F003000860704715
:101E100000100240000C014010B503460C462A2079
:101E200000F098F9181200F08FF9D8B200F08CF990
:101E3000012000F089F93F2000F086F92B2000F006
:101E400089F9201200F080F9E0B200F07DF901205C
:101E500000F07AF9DF2000F077F92C2000F07AF911
:101E6000104600F071F910BDF0B507460C46059D0F
:101E700000262A2000F06EF9201200F065F9E0B289
:101E800000F062F9A118491EC1F30F2000F05CF9BF
:101E9000A118491EC8B200F057F92B2000F05AF9DA
:101EA000181200F051F9D8B200F04EF95919491E34
:101EB000C1F30F2000F048F95919491EC8B200F0CB
:101EC00043F92C2000F046F900BF03E0384600F04B
:101ED0003BF9761C02FB05F0B042F7D8F0BD0000DC
:101EE00000B55548406940F4807053494861084640
:101EF000806940F0080088610846806940F0200051
:101F000088610846806940F0400088610846806921
:101F100040F4807088614948006820F00F0047490C
:101F200008600846006840F003000860081D00686B
:101F3000434908404149091D086008460068414975
:101F400008433E49091D0860081F006800F0FF2093
:101F5000091F08600846006840F0BB1008603A4856
:101F600000680020384908600846006840F0BB302F
:101F70000860081F006820F07040091F08600846CC
:101F8000006840F0304008603048406820F470201D
:101F90002E4948600846406840F4302048600846B2
:101FA000006820F00F0008600846006840F00B0051
:101FB000086000204FF020418861C8612449086012
:101FC0004FF02040806940F480504FF020418861FC
:101FD0000846806940F4804088610846806940F086
:101FE000100088610846C069C8610846C06940F0B1
:101FF0000100C8610846C06940F47060C8611448B7
:102000000068C1F81C0112480068C1F81C010846AC
:10201000D0F81C0140F44070C1F81C0108468069EA
:1020200040F001008861FFF7C9FEFFF7DFFE0120E5
:102030000849086000BD0000001002400014014083
:1020400000F0FF00BB0B00BB041801400020014062
:102050001C0100A0100C01402DE9FF4F81B0824609
:102060008B461446202C01DB7F2C02DD05B0BDE839
:10207000F08FA4F12000C4B2D04600253BE02048F8
:1020800000EB0410465D1E4800EB0411681C0F5C59
:10209000D9460020009025E0304606EBD07149106B
:1020A000A6EB4101012906D109F1080081B24046A1
:1020B000049AFFF7B1FE384607EBD0714910A7EB41
:1020C0004101012904D149464046049AFFF7A4FE84
:1020D00076107F1009F101001FFA80F90098401C6A
:1020E000C0B2009000980828D6DB08F101001FFA62
:1020F00080F8A81CC5B2102DC1DB00BFB6E70000F8
:102100005A2800082DE9F84306460F46144698461B
:10211000DDF8209012E014F8015B202D01DB7F2D0B
:1021200000DD202543462A4639463046CDF800904A
:10213000FFF792FF06F1080086B200BF2078002862
:10214000E9D1BDE8F883000001490880704700002C
:102150000008006C0149088070470000FE07006C11
:10216000FEF7D4FBFEF7F2FAFEF73CFBFEF7D8FAD7
:102170000520FEF74DFBFEF75FFBFFF7B1FEFEF714
:10218000B3FB4FF416512420FEF716FC20203B49E8
:1021900008603B490860C0003849091D08600126F5
:1021A0000127002037490870FFF71AF965E0364823
:1021B0000068401C34490860314808380068C0F3A2
:1021C000C0043248006800F00105FCB9012E1DD1A1
:1021D0002C48007828B901202A490870FEF7B2FE81
:1021E00010E02848007801280CD127480068FEF745
:1021F00041F9022023490870FFF714FDFEF714FE91
:10220000FEF784FE4CF25030FEF72DFA264695B9C3
:10221000012F10D11B480078032803D019480078FB
:10222000022804D1002017490870FFF7D9F84CF2B2
:102230005030FEF718FA2F4612480078022817D1BE
:1022400013480068002805DC03200E490870FEF7DB
:1022500011FE0DE0FFF752FB0D4800680D490968BB
:10226000884205D0FFF732F909480068094908603B
:1022700042F21070FEF7F7F900BF98E7100C01402A
:10228000101801400000002028000020080801402C
:102290002000002038000020F0B501EBC1061C4FE3
:1022A00007EBC60656F8305001EBC10607EBC60631
:1022B00006EBC006746803EBC30607EBC60656F8C8
:1022C000326001EBC107DFF848C00CEBC70747F8E5
:1022D000306003EBC306674607EBC60606EBC20693
:1022E000766801EBC1070CEBC70707EBC0077E6000
:1022F00003EBC306674607EBC60646F8325003EB0E
:10230000C30607EBC60606EBC2067460F0BD00000C
:102310003C00002090EA010F48BF81F0004100F12D
:102320002E82421A3CBF801A89184FEAD0524FF0D1
:102330007F4C1CEA410FA2EBD15318BF9CEA026FFD
:1023400000F03B804FF0004C4CEA00204CEA0121A9
:1023500021FA03FC10EB0C0C1ED202F1FF325FEAF3
:102360001C2040EBC25038BF70471CF07F0F4FEA73
:10237000400C18BFBCF17F4F38BF7047C3F120033A
:10238000994008BF20F00100BCF17F4F38BF704773
:10239000A0F1C04000F0DDB94FEA3C00000A40EB7C
:1023A000C25028BF1CF0FF0F4FEA400CE6D018BF08
:1023B000BCF17F4F38BF7047EAE79CEA026F05D057
:1023C00010EA5C0F08BF00F00040704710B500F045
:1023D0007AF900BF64FBBE3E4FF47F0C1CEAD012BA
:1023E0001EBF1CEAD11392EA0C0F93EA0C0F00F007
:1023F000858090EA010F48BF42F4807240F4000CDF
:1024000041F400002CF07F4120F07F4000B5814274
:10241000A2EB03020FF2081CACEB504EC0F100001F
:102420009EF800E04FEA4E0E00FB0EFC38BF49005C
:102430004FEA2C1C02F5FA020CFB0EF34FEACE1EFB
:102440004FEA112C4FEAC1210EEB635E42EB2242B0
:102450000EFB0CFC4FEA1C5300FB03114FEA112C3E
:102460004FEA01310EFB0CFC4FEADC4C00FB0C1177
:10247000C14228BF09184CEB03335DF804EB10EBA5
:10248000410143EBC250B2F57C0F38BF704729D5EC
:1024900012F0F00F1CBF00F1C04000F00040704788
:1024A000008182838485868788898B8C8D8E8F912D
:1024B0009293959697999A9C9D9FA0A2A3A5A7A851
:1024C000AAACAEB0B2B3B5B7B9BCBEC0C2C5C7C97D
:1024D000CCCED1D4D7D9DCDFE2E6E9ECF0F3F7FAE1
:1024E000FE0000004FEA400C0CF1807CBCF17E4FF6
:1024F00028BF7047B0F1C04000F02BB990EA010F3F
:102500000CEAD11348BF42F48072624538BF63457C
:1025100007D213F47F0F16D080EA010000F00040CC
:10252000704710B500F0CFF8097EFC3E00F005B80A
:1025300080EA010000F00040704780EA010000F0EE
:10254000004000F006B912F47F0F04BF0248704744
:1025500080EA010000F0FDB80000C07FC10DD1F19C
:102560009E0206DB4FEA002343F0004323FA02F009
:102570007047004207D54FEA4001B1F1FE4F02D249
:102580004FF00000704710B500F09DF8499224808C
:10259000002070476FEA200070470000B0FA80F317
:1025A00010FA03F2C3F19D030AD0D90501EB122002
:1025B000530638BF704700F1010008BF20F001004A
:1025C000704700004FF47F0C1CEAD0121EBF1CEABB
:1025D000D11392EA0C0F93EA0C0F00F0478090EAB7
:1025E000010F48BF42F480724FF0004C4CEA0020CB
:1025F0004CEA012102EB0302A0FB0113A2F5000249
:10260000002918BF43F001035B0028BF4FEA3303E2
:1026100042EB22425FEA132C4CEBC2502EBFBCEBC4
:10262000436FB2F57C0F70474FEA036CBCF1004F6B
:1026300008BF20F00100B2F57C0F38BF70470BD502
:1026400082F0FF0212F5803FC8BF704700F1C04022
:10265000D8BF00F00040704700F5000C5FEA4C0C5A
:1026600048BF7047B0F1C04000F073B890EA010F66
:102670000CEAD11348BF42F48072624538BF63450B
:1026800004D280EA010000F00040704710B500F06D
:102690001AF800BF8900013E00F007B800F009B841
:1026A0005FEA410C5FEA1C6C08D080EA010000F090
:1026B00050B85FEA400C5FEA1C6CF6D14FF0004066
:1026C000A0F5800070470EF1020E2EF0030E5EF8AA
:1026D000044B244204D44FEA4102B2F17F4F11D897
:1026E0004FEA4003B3F17F4F0CD80ED14FEAD07CB4
:1026F000B2F17F4F0CEB4C0C0CF1020C08BF4CEB11
:10270000D17C04E04FF0080C01E04FEAD17C0CEBE7
:102710004C0324FA03F404F00704B4F1040C06D2C9
:102720000EEB840CBDE810404CF0010C6047DFE874
:102730000CF0070802024FF00040A0F5800010BD29
:102740000846420018BFD2F1807288BF00F00040F6
:1027500010BDFF2141EAD050C005704780F0004015
:1027600090EA010F7FF5DDAD81F0004100F007B880
:1027700090EA010F48BF81F000413FF5D2AD421A07
:1027800004D882F00042A0EB020011444FEAD0527C
:102790004FF07F4C1CEA410FA2EBD15318BF9CEACB
:1027A000026F4AD04FF0004C4CEA00204CEA012165
:1027B00021FA03FCB0EB0C0C0FD412F0FE0F36D054
:1027C0005FEA4C001DD5001240EBC25038BF704785
:1027D0001CF03F0F18BF70470BE0A2F101025FEA47
:1027E0001C2040EBC25038BF70471CF07F0F18BF51
:1027F0007047C3F12003994014BF401E20F0010030
:10280000704780084FEA122308BF7047B0FA80FC77
:10281000A2EB0C02CCF1280C60FA0CF093EA122F18
:1028200004BF00EBC25070474FEAC3707047130AF1
:102830005FEADC1008BF7047F6E79CEA026F04D03D
:1028400010EA5C0F08BF0020704710B5FFF73BFF90
:1028500040DFF63E81F000407047000000000000BD
:102860000000000000000000000000000000000068
:102870001FCC000C00000000000000000800300029
:1028800060000800300060000000022003FC1E20F1
:10289000022003FC1E200220000000000E1811047C
:1028A0003FFF10840C78000000000F0010840F38E8
:1028B00000C0077818840078000000780F8410C4E6
:1028C00011240E9800E400840008080068007000DD
:1028D00000000000000000000000000000000000F8
:1028E00007E0181820044002000000004002200405
:1028F000181807E0000000000000024002400180BC
:102900000FF0018002400240000000800080008043
:102910000FF800800080008000000001000D000E14
:1029200000000000000000000000000000800080A7
:10293000008000800080008000800000000C000CFF
:102940000000000000000000000000000006001869
:1029500000600180060018002000000007F0080851
:1029600010041004080807F0000000000804080420
:102970001FFC000400040000000000000E0C1014F6
:102980001024104411840E0C000000000C181004D8
:102990001104110412880C700000000000E00320F4
:1029A000042408241FFC0024000000001F98108449
:1029B00011041104108810700000000007F008884E
:1029C0001104110418880070000000001C001000A1
:1029D00010FC13001C001000000000000E38114411
:1029E0001084108411440E38000000000700088C89
:1029F00010441044088807F00000000000000000A8
:102A0000030C030C000000000000000000000001A7
:102A100001060000000000000000000000800140EE
:102A200002200410080810040000022002200220E6
:102A300002200220022002200000000010040808EA
:102A40000410022001400080000000000E0012006F
:102A5000100C106C10800F00000003E00C1813E441
:102A6000142417C4082807D000000004003C03C445
:102A70001C40074000E4001C000410041FFC11046B
:102A8000110411040E880070000003E00C181004FB
:102A90001004100410081C10000010041FFC100487
:102AA00010041004080807F0000010041FFC1104B3
:102AB000110417C410040818000010041FFC1104AE
:102AC000110017C010000800000003E00C181004EB
:102AD000100410441C780040000010041FFC1084F7
:102AE0000080008010841FFC1004000010041004FB
:102AF0001FFC10041004000000000003000110017E
:102B000010011FFE10001000000010041FFC110433
:102B100003801464181C1004000010041FFC10042F
:102B2000000400040004000C000010041FFC1F003F
:102B300000FC1F001FFC1004000010041FFC0C040C
:102B4000030000E010181FFC100007F00808100434
:102B500010041004080807F0000010041FFC108483
:102B60001080108010800F00000007F0081810245B
:102B70001024101C080A07F2000010041FFC1104A6
:102B8000110011C011300E0C000400000E1C1104C5
:102B90001084108410441C38000018001000100429
:102BA0001FFC100410001800000010001FF8100493
:102BB0000004000410041FF8100010001E0011E0B3
:102BC000001C007013801C0010001FC0103C00E0AF
:102BD0001F0000E0103C1FC000001004180C163449
:102BE00001C001C01634180C100410001C0013049E
:102BF00000FC13041C00100000000804101C1064EA
:102C0000108413041C0410180000000000000000D1
:102C10007FFE4002400240020000000030000C0035
:102C200003800060001C000300000000400240021E
:102C300040027FFE000000000000000000002000B5
:102C400040004000400020000000000100010001A1
:102C500000010001000100010001000040004000EF
:102C60002000000000000000000000000098012487
:102C700001440144014400FC000410001FFC0088D2
:102C8000010401040088007000000000007000884A
:102C900001040104010400880000000000700088A5
:102CA0000104010411081FFC0004000000F80144A5
:102CB00001440144014400C8000000000104010473
:102CC0000FFC1104110411001800000000D60129A6
:102CD0000129012901C90106000010041FFC00841C
:102CE00001000100010400FC0004000001041904BB
:102CF00019FC0004000400000000000000030001B3
:102D00000101190119FE0000000010041FFC00243D
:102D1000004001B4010C0104000000001004100484
:102D20001FFC0004000400000000010401FC010479
:102D3000010001FC0104010000FC010401FC00840D
:102D400001000100010400FC0004000000F801047F
:102D500001040104010400F80000010101FF0085E5
:102D60000104010400880070000000000070008869
:102D700001040104010501FF00010104010401FC3B
:102D800000840104010001800000000000CC012447
:102D90000124012401240198000000000100010029
:102DA00007F80104010400000000010001F800041C
:102DB00000040004010801FC00040100018001700E
:102DC000000C001001600180010001F0010C0030D6
:102DD00001C00030010C01F0010000000104018C71
:102DE00000740170018C0104000001010181017176
:102DF000000E001801600180010000000184010C38
:102E0000013401440184010C0000000000000000B6
:102E1000000001003EFC40024002000000000000F3
:102E20000000FFFF00000000000000004002400220
:102E30003EFC010000000000000000006000800077
:102E400080004000400020002000010002000480BB
:102E50000888109024A044C487FE44C024A0109089
:102E600008880480020001000000440211040CD80C
:102E700000000A00323E12221222EFE21222122237
:102E8000123E0200000000000000080012322A0A70
:102E90004FFE2A0A123208000410082074C0137E64
:102EA000144218420042007E0000080008700B0027
:102EB0000C00FFFF0C000B80086008800B000C006A
:102EC000FFFF0C000B0008800860000010006A0083
:102ED000AC0038FC2C922A9200923F92229222FC63
:102EE00022003F0000000000000000F84A941F008C
:102EF000E0FF20FD1FF804000008000000000000B3
:102F00000002000100001000282F0008000000202F
:102F10003C0000006C010008642F00083C00002009
:102F2000CC0900008801000800000000000000003B
:102F3000000000000000000000000000040000008D
:102F40000400000000000000B400000000000000C9
:102F50000000000000000000000000000000000071
:042F6000000000006D
:040000050800020DE0
:00000001FF
